{
  "contractName": "ERC721Enumerable",
  "abi": [
    {
      "inputs": [],
      "stateMutability": "nonpayable",
      "type": "constructor"
    },
    {
      "anonymous": false,
      "inputs": [
        {
          "indexed": true,
          "internalType": "address",
          "name": "from",
          "type": "address"
        },
        {
          "indexed": true,
          "internalType": "address",
          "name": "to",
          "type": "address"
        },
        {
          "indexed": true,
          "internalType": "uint256",
          "name": "tokenId",
          "type": "uint256"
        }
      ],
      "name": "Transfer",
      "type": "event"
    },
    {
      "inputs": [
        {
          "internalType": "address",
          "name": "_owner",
          "type": "address"
        }
      ],
      "name": "balanceOf",
      "outputs": [
        {
          "internalType": "uint256",
          "name": "",
          "type": "uint256"
        }
      ],
      "stateMutability": "view",
      "type": "function"
    },
    {
      "inputs": [
        {
          "internalType": "uint256",
          "name": "_tokenId",
          "type": "uint256"
        }
      ],
      "name": "ownerOf",
      "outputs": [
        {
          "internalType": "address",
          "name": "",
          "type": "address"
        }
      ],
      "stateMutability": "view",
      "type": "function"
    },
    {
      "inputs": [
        {
          "internalType": "bytes4",
          "name": "interfaceID",
          "type": "bytes4"
        }
      ],
      "name": "supportsInterface",
      "outputs": [
        {
          "internalType": "bool",
          "name": "",
          "type": "bool"
        }
      ],
      "stateMutability": "view",
      "type": "function"
    },
    {
      "inputs": [
        {
          "internalType": "uint256",
          "name": "index",
          "type": "uint256"
        }
      ],
      "name": "tokenByIndex",
      "outputs": [
        {
          "internalType": "uint256",
          "name": "",
          "type": "uint256"
        }
      ],
      "stateMutability": "view",
      "type": "function"
    },
    {
      "inputs": [
        {
          "internalType": "address",
          "name": "to",
          "type": "address"
        },
        {
          "internalType": "uint256",
          "name": "tokenId",
          "type": "uint256"
        }
      ],
      "name": "_mint",
      "outputs": [],
      "stateMutability": "nonpayable",
      "type": "function"
    },
    {
      "inputs": [],
      "name": "totalSupply",
      "outputs": [
        {
          "internalType": "uint256",
          "name": "",
          "type": "uint256"
        }
      ],
      "stateMutability": "view",
      "type": "function"
    },
    {
      "inputs": [
        {
          "internalType": "address",
          "name": "owner",
          "type": "address"
        },
        {
          "internalType": "uint256",
          "name": "index",
          "type": "uint256"
        }
      ],
      "name": "tokenOfOwnerByIndex",
      "outputs": [
        {
          "internalType": "uint256",
          "name": "",
          "type": "uint256"
        }
      ],
      "stateMutability": "view",
      "type": "function"
    }
  ],
  "bytecode": "0x608060405234801561001057600080fd5b506100407f01ffc9a7a5cef8baa21ed3c5c0d7e23accb804b619e9333b597f47a0d84076e261010960201b60201c565b6100917f3a6eb71757dfc6e784c1459d26270140c2c147d95ca985c80026fc5301c3eca17f8a7e378434598edc36d108689a030cbc9d7d465de4f74c71bae1028eed6a881b1861010960201b60201c565b6101047f8230223f691b981717299fae9549350a0d894555723531f02108b1f522c1a7977f6da5e1284143cdd2d15038a59bde3be031250f00291d64494c12d967b3a4e0c37fc53637662700e6c65104059db8bba34439e0c32483ab7c34e3ccae52c7395495181861010960201b60201c565b610211565b63ffffffff60e01b817bffffffffffffffffffffffffffffffffffffffffffffffffffffffff191614156101a5576040517f08c379a00000000000000000000000000000000000000000000000000000000081526004018080602001828103825260148152602001807f496e7661696c6420496e7465726661636520496400000000000000000000000081525060200191505060405180910390fd5b6001600080837bffffffffffffffffffffffffffffffffffffffffffffffffffffffff19167bffffffffffffffffffffffffffffffffffffffffffffffffffffffff1916815260200190815260200160002060006101000a81548160ff02191690831515021790555050565b6109b5806102206000396000f3fe608060405234801561001057600080fd5b506004361061007d5760003560e01c80634e6ec2471161005b5780634e6ec247146101655780634f6ccce7146101b35780636352211e146101f557806370a082311461024d5761007d565b806301ffc9a71461008257806318160ddd146100e55780632f745c5914610103575b600080fd5b6100cd6004803603602081101561009857600080fd5b8101908080357bffffffffffffffffffffffffffffffffffffffffffffffffffffffff191690602001909291905050506102a5565b60405180821515815260200191505060405180910390f35b6100ed61030c565b6040518082815260200191505060405180910390f35b61014f6004803603604081101561011957600080fd5b81019080803573ffffffffffffffffffffffffffffffffffffffff16906020019092919080359060200190929190505050610319565b6040518082815260200191505060405180910390f35b6101b16004803603604081101561017b57600080fd5b81019080803573ffffffffffffffffffffffffffffffffffffffff16906020019092919080359060200190929190505050610378565b005b6101df600480360360208110156101c957600080fd5b8101908080359060200190929190505050610399565b6040518082815260200191505060405180910390f35b6102216004803603602081101561020b57600080fd5b8101908080359060200190929190505050610411565b604051808273ffffffffffffffffffffffffffffffffffffffff16815260200191505060405180910390f35b61028f6004803603602081101561026357600080fd5b81019080803573ffffffffffffffffffffffffffffffffffffffff1690602001909291905050506104f6565b6040518082815260200191505060405180910390f35b6000806000837bffffffffffffffffffffffffffffffffffffffffffffffffffffffff19167bffffffffffffffffffffffffffffffffffffffffffffffffffffffff1916815260200190815260200160002060009054906101000a900460ff169050919050565b6000600380549050905090565b6000600460008473ffffffffffffffffffffffffffffffffffffffff1673ffffffffffffffffffffffffffffffffffffffff168152602001908152602001600020828154811061036557fe5b9060005260206000200154905092915050565b61038282826105e1565b61038b81610800565b6103958282610849565b5050565b60006103a361030c565b82106103f2576040517f08c379a0000000000000000000000000000000000000000000000000000000008152600401808060200182810382526000815260200160200191505060405180910390fd5b600382815481106103ff57fe5b90600052602060002001549050919050565b6000806001600084815260200190815260200160002060009054906101000a900473ffffffffffffffffffffffffffffffffffffffff169050600073ffffffffffffffffffffffffffffffffffffffff168173ffffffffffffffffffffffffffffffffffffffff1614156104ed576040517f08c379a000000000000000000000000000000000000000000000000000000000815260040180806020018281038252601c8152602001807f54686973206973206e6f74204176696163626c6520416464726573730000000081525060200191505060405180910390fd5b80915050919050565b60008073ffffffffffffffffffffffffffffffffffffffff168273ffffffffffffffffffffffffffffffffffffffff16141561059a576040517f08c379a000000000000000000000000000000000000000000000000000000000815260040180806020018281038252601c8152602001807f54686973206973206e6f74204176696163626c6520416464726573730000000081525060200191505060405180910390fd5b600260008373ffffffffffffffffffffffffffffffffffffffff1673ffffffffffffffffffffffffffffffffffffffff168152602001908152602001600020549050919050565b600073ffffffffffffffffffffffffffffffffffffffff168273ffffffffffffffffffffffffffffffffffffffff161415610684576040517f08c379a000000000000000000000000000000000000000000000000000000000815260040180806020018281038252601a8152602001807f43616e2774206d696e7420746f2041646472657373205a65726f00000000000081525060200191505060405180910390fd5b61068d8161090d565b15610700576040517f08c379a00000000000000000000000000000000000000000000000000000000081526004018080602001828103825260148152602001807f546f6b656e20416c7265616479206d696e74656400000000000000000000000081525060200191505060405180910390fd5b816001600083815260200190815260200160002060006101000a81548173ffffffffffffffffffffffffffffffffffffffff021916908373ffffffffffffffffffffffffffffffffffffffff1602179055506001600260008473ffffffffffffffffffffffffffffffffffffffff1673ffffffffffffffffffffffffffffffffffffffff16815260200190815260200160002060008282540192505081905550808273ffffffffffffffffffffffffffffffffffffffff16600073ffffffffffffffffffffffffffffffffffffffff167fddf252ad1be2c89b69c2b068fc378daa952ba7f163c4a11628f55a4df523b3ef60405160405180910390a45050565b6003805490506005600083815260200190815260200160002081905550600381908060018154018082558091505060019003906000526020600020016000909190919091505550565b600460008373ffffffffffffffffffffffffffffffffffffffff1673ffffffffffffffffffffffffffffffffffffffff168152602001908152602001600020805490506006600083815260200190815260200160002081905550600460008373ffffffffffffffffffffffffffffffffffffffff1673ffffffffffffffffffffffffffffffffffffffff1681526020019081526020016000208190806001815401808255809150506001900390600052602060002001600090919091909150555050565b6000806001600084815260200190815260200160002060009054906101000a900473ffffffffffffffffffffffffffffffffffffffff169050600073ffffffffffffffffffffffffffffffffffffffff168173ffffffffffffffffffffffffffffffffffffffff16141591505091905056fea26469706673582212200d8d4020b9ebb8f71890748e301c4f51aae39930f57525e480f5da4bc26ebb8364736f6c63430007010033",
  "immutableReferences": {},
  "source": "// SPDX-License-Identifier: MIT\r\npragma solidity >=0.4.22 <0.9.0;\r\nimport \"./ERC721.sol\";\r\nimport \"./interfaces/InterfaceERC721Enumerable.sol\";\r\n//import \"./ERC165.sol\";\r\n\r\ncontract ERC721Enumerable is ERC721, InterfaceERC721Enumerable{\r\n    //TO Do the other interface function\r\n    uint256 [] private _allTokens;\r\n    mapping(address => uint256[]) private _owenedTokens;\r\n    mapping(uint256 => uint256) private _allTokensByIndex;\r\n    mapping(uint256 => uint256) private _owenedTokensIndex;\r\n\r\n    constructor(){\r\n        _registerInterface(bytes4(keccak256('totalSupply(bytes4)')^\r\n        keccak256('tokenByIndex(bytes4)')^\r\n        keccak256('tokenOfOwnerByIndex(bytes4)')\r\n        ));\r\n    }\r\n\r\n    function tokenByIndex(uint256 index) public override view returns(uint256){\r\n        require(index < totalSupply(), \"\");\r\n        return _allTokens[index];\r\n    }\r\n     \r\n    function _mint(address to, uint256 tokenId) public override (ERC721){\r\n        super._mint(to, tokenId);\r\n        _addtokenToTotalSupply(tokenId);\r\n        _addTokenToTheOwners(to, tokenId);\r\n    }\r\n\r\n    function _addtokenToTotalSupply (uint256 tokenId) private {\r\n        _allTokensByIndex[tokenId] = _allTokens.length;\r\n        _allTokens.push(tokenId);\r\n    }\r\n\r\n    function totalSupply() public override view returns (uint256) {\r\n        return _allTokens.length;\r\n    }\r\n\r\n    function tokenOfOwnerByIndex(address owner, uint256 index) public override view returns (uint256) {\r\n        return _owenedTokens[owner][index];\r\n    }\r\n\r\n    function _addTokenToTheOwners(address to, uint256 tokenId) private {\r\n        _owenedTokensIndex[tokenId] = _owenedTokens[to].length;\r\n        _owenedTokens[to].push(tokenId);\r\n    }\r\n\r\n\r\n}\r\n",
  "sourcePath": "C:\\Users\\alyaf\\Documents\\GitHub\\NFT-DC\\contracts\\ERC721Enumerable.sol",
  "compiler": {
    "name": "solc",
    "version": "0.7.1+commit.f4a555be.Emscripten.clang"
  },
  "schemaVersion": "3.4.11",
  "updatedAt": "2023-01-02T20:28:10.749Z",
  "devdoc": {
    "kind": "dev",
    "methods": {},
    "version": 1
  },
  "userdoc": {
    "kind": "user",
    "methods": {},
    "version": 1
  }
}