{
  "contractName": "ERC721",
  "abi": [
    {
      "anonymous": false,
      "inputs": [
        {
          "indexed": true,
          "internalType": "address",
          "name": "from",
          "type": "address"
        },
        {
          "indexed": true,
          "internalType": "address",
          "name": "to",
          "type": "address"
        },
        {
          "indexed": true,
          "internalType": "uint256",
          "name": "tokenId",
          "type": "uint256"
        }
      ],
      "name": "Transfare",
      "type": "event"
    },
    {
      "inputs": [
        {
          "internalType": "address",
          "name": "_owner",
          "type": "address"
        }
      ],
      "name": "balanceOf",
      "outputs": [
        {
          "internalType": "uint256",
          "name": "",
          "type": "uint256"
        }
      ],
      "stateMutability": "view",
      "type": "function"
    },
    {
      "inputs": [
        {
          "internalType": "uint256",
          "name": "_tokenId",
          "type": "uint256"
        }
      ],
      "name": "ownerOf",
      "outputs": [
        {
          "internalType": "address",
          "name": "",
          "type": "address"
        }
      ],
      "stateMutability": "view",
      "type": "function"
    },
    {
      "inputs": [
        {
          "internalType": "address",
          "name": "to",
          "type": "address"
        },
        {
          "internalType": "uint256",
          "name": "tokenId",
          "type": "uint256"
        }
      ],
      "name": "_mint",
      "outputs": [],
      "stateMutability": "nonpayable",
      "type": "function"
    }
  ],
  "bytecode": "0x608060405234801561001057600080fd5b506105d7806100206000396000f3fe608060405234801561001057600080fd5b50600436106100415760003560e01c80634e6ec247146100465780636352211e1461009457806370a08231146100ec575b600080fd5b6100926004803603604081101561005c57600080fd5b81019080803573ffffffffffffffffffffffffffffffffffffffff16906020019092919080359060200190929190505050610144565b005b6100c0600480360360208110156100aa57600080fd5b8101908080359060200190929190505050610361565b604051808273ffffffffffffffffffffffffffffffffffffffff16815260200191505060405180910390f35b61012e6004803603602081101561010257600080fd5b81019080803573ffffffffffffffffffffffffffffffffffffffff169060200190929190505050610445565b6040518082815260200191505060405180910390f35b600073ffffffffffffffffffffffffffffffffffffffff168273ffffffffffffffffffffffffffffffffffffffff1614156101e7576040517f08c379a000000000000000000000000000000000000000000000000000000000815260040180806020018281038252601a8152602001807f43616e2774206d696e7420746f2041646472657373205a65726f00000000000081525060200191505060405180910390fd5b6101f081610530565b15610263576040517f08c379a00000000000000000000000000000000000000000000000000000000081526004018080602001828103825260148152602001807f546f6b656e20416c7265616479206d696e74656400000000000000000000000081525060200191505060405180910390fd5b8160008083815260200190815260200160002060006101000a81548173ffffffffffffffffffffffffffffffffffffffff021916908373ffffffffffffffffffffffffffffffffffffffff16021790555060018060008473ffffffffffffffffffffffffffffffffffffffff1673ffffffffffffffffffffffffffffffffffffffff16815260200190815260200160002060008282540192505081905550808273ffffffffffffffffffffffffffffffffffffffff16600073ffffffffffffffffffffffffffffffffffffffff167f68b1f3d766b29e90724c441a64a3f74e041a82402fbe1c8cb90ab50fd727146c60405160405180910390a45050565b60008060008084815260200190815260200160002060009054906101000a900473ffffffffffffffffffffffffffffffffffffffff169050600073ffffffffffffffffffffffffffffffffffffffff168173ffffffffffffffffffffffffffffffffffffffff16141561043c576040517f08c379a000000000000000000000000000000000000000000000000000000000815260040180806020018281038252601c8152602001807f54686973206973206e6f74204176696163626c6520416464726573730000000081525060200191505060405180910390fd5b80915050919050565b60008073ffffffffffffffffffffffffffffffffffffffff168273ffffffffffffffffffffffffffffffffffffffff1614156104e9576040517f08c379a000000000000000000000000000000000000000000000000000000000815260040180806020018281038252601c8152602001807f54686973206973206e6f74204176696163626c6520416464726573730000000081525060200191505060405180910390fd5b600160008373ffffffffffffffffffffffffffffffffffffffff1673ffffffffffffffffffffffffffffffffffffffff168152602001908152602001600020549050919050565b60008060008084815260200190815260200160002060009054906101000a900473ffffffffffffffffffffffffffffffffffffffff169050600073ffffffffffffffffffffffffffffffffffffffff168173ffffffffffffffffffffffffffffffffffffffff16141591505091905056fea2646970667358221220668070084828505b4851b2fc31bb63df8e5d428c6351562f72c2751bca0aaf7964736f6c63430007010033",
  "immutableReferences": {},
  "source": "// SPDX-License-Identifier: MIT\r\npragma solidity >=0.4.22 <0.9.0;\r\n\r\ncontract ERC721{\r\n\r\n\r\n    mapping(uint256 => address) private _tokenOwners;\r\n    //0xAa2B9Cd860d558777Edbb0c9e745b77cD43254b2 how many this address has tokens\r\n    mapping(address => uint256) private _TokenOwnerOwened;\r\n\r\n    event Transfare(address indexed from, address indexed to, uint256 indexed tokenId);\r\n\r\n    function _exists(uint256 tokenId) internal view returns(bool){\r\n        address owner = _tokenOwners[tokenId];\r\n        return owner != address(0);\r\n    }\r\n\r\n    //How many token the user has\r\n\r\n    //token => user \r\n    function balanceOf(address _owner) external view returns (uint256){\r\n        require(_owner != address(0), \"This is not Aviacble Address\");\r\n        return _TokenOwnerOwened[_owner];\r\n    } \r\n\r\n    //Send the tokens to the owner\r\n    function ownerOf(uint256 _tokenId) external view returns (address){\r\n        address _owner = _tokenOwners[_tokenId];\r\n        require(_owner != address(0), \"This is not Aviacble Address\");\r\n        return _owner;\r\n    }\r\n \r\n    //We use virtual in order to modify or add to the function we use this key word\r\n    function _mint(address to, uint256 tokenId) public virtual {\r\n\r\n        require(to != address(0), \"Can't mint to Address Zero\");\r\n        require(!_exists(tokenId), \"Token Already minted\");\r\n\r\n        _tokenOwners[tokenId] = to;\r\n        _TokenOwnerOwened[to] += 1;\r\n\r\n        emit Transfare(address(0),to,tokenId);\r\n    }\r\n}",
  "sourcePath": "C:\\Users\\alyaf\\Documents\\GitHub\\NFT-DC\\contracts\\ERC721.sol",
  "compiler": {
    "name": "solc",
    "version": "0.7.1+commit.f4a555be.Emscripten.clang"
  },
  "schemaVersion": "3.4.11",
  "updatedAt": "2023-01-01T15:19:06.356Z",
  "devdoc": {
    "kind": "dev",
    "methods": {},
    "version": 1
  },
  "userdoc": {
    "kind": "user",
    "methods": {},
    "version": 1
  }
}