{
  "contractName": "ERC721",
  "abi": [
    {
      "anonymous": false,
      "inputs": [
        {
          "indexed": true,
          "internalType": "address",
          "name": "from",
          "type": "address"
        },
        {
          "indexed": true,
          "internalType": "address",
          "name": "to",
          "type": "address"
        },
        {
          "indexed": true,
          "internalType": "uint256",
          "name": "tokenId",
          "type": "uint256"
        }
      ],
      "name": "Transfare",
      "type": "event"
    },
    {
      "inputs": [
        {
          "internalType": "address",
          "name": "to",
          "type": "address"
        },
        {
          "internalType": "uint256",
          "name": "tokenId",
          "type": "uint256"
        }
      ],
      "name": "_mint",
      "outputs": [],
      "stateMutability": "nonpayable",
      "type": "function"
    }
  ],
  "bytecode": "0x608060405234801561001057600080fd5b50610342806100206000396000f3fe608060405234801561001057600080fd5b506004361061002b5760003560e01c80634e6ec24714610030575b600080fd5b61007c6004803603604081101561004657600080fd5b81019080803573ffffffffffffffffffffffffffffffffffffffff1690602001909291908035906020019092919050505061007e565b005b600073ffffffffffffffffffffffffffffffffffffffff168273ffffffffffffffffffffffffffffffffffffffff161415610121576040517f08c379a000000000000000000000000000000000000000000000000000000000815260040180806020018281038252601a8152602001807f43616e2774206d696e7420746f2041646472657373205a65726f00000000000081525060200191505060405180910390fd5b61012a8161029b565b1561019d576040517f08c379a00000000000000000000000000000000000000000000000000000000081526004018080602001828103825260148152602001807f546f6b656e20416c7265616479206d696e74656400000000000000000000000081525060200191505060405180910390fd5b8160008083815260200190815260200160002060006101000a81548173ffffffffffffffffffffffffffffffffffffffff021916908373ffffffffffffffffffffffffffffffffffffffff16021790555060018060008473ffffffffffffffffffffffffffffffffffffffff1673ffffffffffffffffffffffffffffffffffffffff16815260200190815260200160002060008282540192505081905550808273ffffffffffffffffffffffffffffffffffffffff16600073ffffffffffffffffffffffffffffffffffffffff167f68b1f3d766b29e90724c441a64a3f74e041a82402fbe1c8cb90ab50fd727146c60405160405180910390a45050565b60008060008084815260200190815260200160002060009054906101000a900473ffffffffffffffffffffffffffffffffffffffff169050600073ffffffffffffffffffffffffffffffffffffffff168173ffffffffffffffffffffffffffffffffffffffff16141591505091905056fea2646970667358221220e75c3781d35827338c28636b3e25c805b0a210a095cc147cc96428ca9324448f64736f6c63430007010033",
  "immutableReferences": {},
  "source": "// SPDX-License-Identifier: MIT\r\npragma solidity >=0.4.22 <0.9.0;\r\n\r\ncontract ERC721{\r\n\r\n\r\n    mapping(uint256 => address) private _tokenOwners;\r\n    //0xAa2B9Cd860d558777Edbb0c9e745b77cD43254b2 how many this address has tokens\r\n    mapping(address => uint256) private _TokenOwnerOwened;\r\n\r\n    event Transfare(address indexed from, address indexed to, uint256 indexed tokenId);\r\n\r\n    function _exists(uint256 tokenId) internal view returns(bool){\r\n        address owner = _tokenOwners[tokenId];\r\n        return owner != address(0);\r\n    }\r\n\r\n    //Send the tokens to the owner\r\n    function _mint(address to, uint256 tokenId) public {\r\n\r\n        require(to != address(0), \"Can't mint to Address Zero\");\r\n        require(!_exists(tokenId), \"Token Already minted\");\r\n\r\n        _tokenOwners[tokenId] = to;\r\n        _TokenOwnerOwened[to] += 1;\r\n\r\n        emit Transfare(address(0),to,tokenId);\r\n    }\r\n}",
  "sourcePath": "C:\\Users\\alyaf\\Documents\\GitHub\\NFT-DC\\contracts\\ERC721.sol",
  "compiler": {
    "name": "solc",
    "version": "0.7.1+commit.f4a555be.Emscripten.clang"
  },
  "schemaVersion": "3.4.11",
  "updatedAt": "2022-12-26T11:01:13.120Z",
  "devdoc": {
    "kind": "dev",
    "methods": {},
    "version": 1
  },
  "userdoc": {
    "kind": "user",
    "methods": {},
    "version": 1
  }
}